:100000000FC033C032C031C030C03CC02EC02DC084
:100010002CC02BC02AC029C028C027C026C0A702D8
:1000200011241FBECFE5D2E0DEBFCDBF11E0A0E6B8
:10003000B0E0E0E6F6E002C005900D92A63BB10705
:10004000D9F721E0A6EBB1E001C01D92A33FB207B2
:10005000E1F710E0C0E2D0E003C02297FE01BDD27C
:10006000CE31D107D1F770D2F9C2CACFCF93DF9387
:10007000EC018991882319F064E155D2FACFDF9120
:10008000CF9108951F920F920FB60F921124DF9215
:10009000EF92FF920F931F932F933F934F935F9392
:1000A0006F937F938F939F93AF93BF93CF93DF9380
:1000B000EF93FF93E091E901F091EA01D090EB0119
:1000C000E090EC01F090ED010091EE011091EF0154
:1000D000D091F001C091F101B091F201F3952D2D75
:1000E0003E2D4F2D502F612F7D2F8C2F9B2FA1E068
:1000F00066D2E93EA3E0FA0758F0E85EF340D22E5C
:10010000E32EF42E052F162FD72FC82FB92FE7CFA8
:10011000D092EB01E092EC01F092ED010093EE0140
:100120001093EF01D093F001C093F101B093F2016D
:10013000F093EA01E093E901FF91EF91DF91CF9114
:10014000BF91AF919F918F917F916F915F914F91EF
:100150003F912F911F910F91FF90EF90DF900F90A3
:100160000FBE0F901F901895F8942091EB013091DD
:10017000EC014091ED015091EE016091EF01709121
:10018000F0018091F1019091F2017894089584E654
:1001900090E06CDFAA9ABA98C29A83B7826083BF54
:1001A00089B7826089BF789408954F925F926F9269
:1001B0007F928F929F92AF92BF92CF92DF92EF92F7
:1001C000FF921F93CF93DF93CFDF29013A0116B33C
:1001D00012FB112710F9C8DFC901DA01C091DB0158
:1001E000D091DC01C130D105C9F54091DD015091BC
:1001F000DE016091DF017091E0016C017D01C41AA4
:10020000D50AE60AF70A4091CF015091D0016091DA
:10021000D1017091D201C416D506E606F70608F49E
:1002200057C01092DC011092DB018093DD019093A6
:10023000DE01A093DF01B093E0018091D90190919C
:10024000DA0114DF88B30090CD0102C0CC0FDD1FAE
:100250000A94E2F7C095C823C8BB3AC0CD2BC1F5BC
:100260004091DD015091DE016091DF017091E0016C
:100270006C017D01C41AD50AE60AF70A4091D30140
:100280005091D4016091D5017091D601C416D50664
:10029000E606F706E8F0C1E0D0E0D093DC01C093B9
:1002A000DB018093DD019093DE01A093DF01B09329
:1002B000E0018091D7019091D801D8DE88B30090F9
:1002C000CD0102C0CC0FDD1F0A94E2F78C2B88BB56
:1002D0008FEF90E722E0815090402040E1F700C08E
:1002E000000085E790E0C2DE8CE790E0BFDE809101
:1002F000CC014AE050E066EB71E090E072D186EB11
:1003000091E0B4DE80E990E0B1DE8091CB014AE07B
:1003100050E066EB71E090E064D186EB91E0A6DE00
:1003200084EA90E0A3DE4AE050E066EB71E0809161
:10033000C7019091C80155D186EB91E097DE84EB1F
:1003400090E094DE8091C6014AE050E066EB71E0F7
:1003500090E047D186EB91E089DE86EC90E086DE86
:100360004AE050E066EB71E0812F90E03AD186EBF5
:1003700091E07CDE85ED90E079DEE2014AE050E03C
:1003800066EB71E0C2012DD186EB91E06FDE83EB6D
:1003900091E06CDE112361F08091C601811108C0EB
:1003A00080EE90E063DE81E08093CC018093C60113
:1003B0008091C6018823C9F18091C7019091C8013D
:1003C000A091C901B091CA01892B8A2B8B2B69F5A9
:1003D00011112DC081E091E049DE8091C70190911B
:1003E000C801A091C901B091CA01892B8A2B8B2B1E
:1003F00079F580E191E03ADEB7DE2093C7013093D2
:10040000C8014093C9015093CA014AE050E066EB2D
:1004100071E0C901E6D086EB91E028DE83EB91E044
:1004200025DE81E08093CB0113C0112389F08091F8
:10043000CB01882369F086E291E018DE1092CB01AF
:100440001092C7011092C8011092C9011092CA01FE
:100450008091CC01882309F456C08091CB01882378
:1004600009F451C085E790E001DE8BE391E0FEDD09
:1004700020916000309161008091C7019091C80186
:100480004AE050E066EB71E0820F931FAAD086EB42
:1004900091E0ECDD86E691E0E9DD4AE050E066EBD4
:1004A00071E0CE019ED086EB91E0E0DD83EB91E040
:1004B000DDDD8091600090916100AA2797FDA095F5
:1004C000BA2F4091C7015091C8016091C901709144
:1004D000CA01840F951FA61FB71F481659066A0642
:1004E0007B0688F082E791E0C1DD1092CC0110928A
:1004F000C6011092CB011092C7011092C801109250
:10050000C9011092CA01DF91CF911F91FF90EF9026
:10051000DF90CF90BF90AF909F908F907F906F9023
:100520005F904F900895F894BB9A2AE0809508F464
:10053000C39808F0C39A362F3A95F1F786952A9515
:10054000B1F718954ED0089522DE2FDEFECF81E957
:1005500091E09093D8018093D70183EA91E0909342
:10056000DA018093D90184E090E09093CE018093EA
:10057000CD01BC9A88EB9BE0A0E0B0E08093CF0176
:100580009093D001A093D101B093D20188E893E178
:10059000A0E0B0E08093D3019093D401A093D50163
:1005A000B093D6011092DC011092DB011092DD01B4
:1005B0001092DE011092DF011092E00108950024F4
:1005C000A7FD00942A0F301D401D501D601D701D99
:1005D000801D901D0895EE0FFF1F0590F491E02DF2
:1005E00009944532510518F4423008F004C0FB016B
:1005F0001082CB010895BB274A3031F4992322F4AD
:10060000BDE2909581959F4F01C0BB27FB01552707
:10061000AA27880F991FAA1FA41710F0A41B83955F
:100620005051B9F7A05DAA3308F0A95DA1930097D6
:1006300079F7B111B1931192CB0100C0DC01FC013B
:10064000672F71917723E1F7329704C07C916D9306
:1006500070836291AE17BF07C8F30895F894FFCF77
:10066000881336005374617274696E672053657421
:1006700075700D0A0044454255473A002069735F82
:1006800072656C61795F656E61626C65643A2000C9
:1006900020707265706172655F73687574646F77DE
:1006A0006E3A20002073746172745F6D696C6C69BE
:1006B000733A20002069735F3132765F656E616244
:1006C0006C65643A20002069735F706F7765725FB4
:1006D0006F6E3A2000206D696C6C697328292000C8
:1006E000313256206973207365656E202D20547554
:1006F000726E696E67206F6E2072656C61790D0A8B
:100700000031325620697320676F6E65202D2000FE
:10071000436F756E74646F776E2053746172746585
:1007200064206174200043616E63656C6C696E6760
:1007300020706F776572646F776E002073746172DA
:10074000745F6D696C6C6973202B206D696C6C69CA
:10075000735F746F5F7475726E5F6F66665F7265EC
:100760006C61793A2000206D696C6C697328293AB4
:10077000200054696D65206D65742C207368757454
:1007800074696E67206F66662072656C61790D0A08
:10079000005475726E696E67206F6E204C45442060
:1007A0000D0A005475726E696E67206F6666204C84
:0607B0004544200D0A0083
:00000001FF
