:100000000EC028C027C026C025C025C023C022C0DE
:1000100021C020C01FC01EC01DC01CC01BC0112499
:100020001FBECFE5D2E0DEBFCDBF10E0A0E6B0E05E
:10003000E4EBF2E002C005900D92A236B107D9F7C9
:1000400020E0A2E6B0E001C01D92AB37B207E1F7B5
:1000500020D12EC1D5CF1F920F920FB60F9211242F
:10006000DF92EF92FF920F931F932F933F934F9343
:100070005F936F937F938F939F93AF93BF93CF9330
:10008000DF93EF93FF93E0917100F0917200D090B5
:100090007300E0907400F09075000091760010916C
:1000A0007700D0917800C0917900B0917A00F395F3
:1000B0002D2D3E2D4F2D502F612F7D2F8C2F9B2FBF
:1000C000A1E0EAD0E93EA3E0FA0758F0E85EF34089
:1000D000D22EE32EF42E052F162FD72FC82FB92F8F
:1000E000E7CFD0927300E0927400F0927500009315
:1000F000760010937700D0937800C0937900B09386
:100100007A00F0937200E0937100FF91EF91DF911C
:10011000CF91BF91AF919F918F917F916F915F919F
:100120004F913F912F911F910F91FF90EF90DF9092
:100130000F900FBE0F901F901895F89420917300A8
:100140003091740040917500509176006091770075
:10015000709178008091790090917A007894089558
:10016000BC9A83B7826083BF89B7826089BF789465
:1001700008954F925F926F927F928F929F92AF926B
:10018000BF92DBDF29013A0126B322FB222720F9A7
:100190003FEF80E792E0315080409040E1F700C0AF
:1001A00000002223C1F080916200811106C081E02D
:1001B0008093680080936200C49A809167008823CE
:1001C00051F0109267001092630010926400109238
:1001D000650010926600809162008823D1F08091C2
:1001E000630090916400A0916500B0916600892B36
:1001F0008A2B8B2B71F421110CC09FDF209363009D
:1002000030936400409365005093660081E08093D2
:10021000670080916800882321F18091670088231E
:1002200001F18091630090916400A0916500B0910C
:10023000660088579C4EAF4FBF4F481659066A0656
:100240007B0678F0C49810926800109262001092B9
:100250006700109263001092640010926500109283
:100260006600BF90AF909F908F907F906F905F904F
:100270004F900895F894BB9A2AE0809508F4C398AB
:1002800008F0C39A362F3A95F1F786952A95B1F77B
:10029000189566DF6EDFFECF0024A7FD00942A0FBD
:1002A000301D401D501D601D701D801D901D089546
:0402B000F894FFCFF0
:0202B400360012
:00000001FF
