:100000000FC033C0D3C031C030C030C02EC02DC0EF
:100010002CC02BC02AC029C028C027C026C0C701B9
:1000200011241FBECFE5D2E0DEBFCDBF10E0A0E6B9
:10003000B0E0E4E7F4E002C005900D92A03DB10706
:10004000D9F720E0A0EDB0E001C01D92A23FB207B9
:10005000E1F710E0C0E2D0E003C02297FE01D1D169
:10006000CE31D107D1F790D103C2CACF1F920F92E0
:100070000FB60F921124DF92EF92FF920F931F930E
:100080002F933F934F935F936F937F938F939F93A0
:10009000AF93BF93CF93DF93EF93FF93E091E8008B
:1000A000F091E900D090EA00E090EB00F090EC00D5
:1000B0000091ED001091EE00D091EF00C091F000A2
:1000C000B091F100F3952D2D3E2D4F2D502F612F26
:1000D0007D2F8C2F9B2FA1E086D1E93EA3E0FA076C
:1000E00058F0E85EF340D22EE32EF42E052F162FA3
:1000F000D72FC82FB92FE7CFD092EA00E092EB00BC
:10010000F092EC000093ED001093EE00D093EF001E
:10011000C093F000B093F100F093E900E093E800A1
:10012000FF91EF91DF91CF91BF91AF919F918F910F
:100130007F916F915F914F913F912F911F910F91FF
:10014000FF90EF90DF900F900FBE0F901F901895CB
:10015000F8942091EA003091EB004091EC0050912E
:10016000ED006091EE007091EF008091F0009091B1
:10017000F10078940895F8948BB780628BBFAA9AA7
:10018000BA98C29A83B7826083BF89B7826089BFF9
:1001900078940895CF93DF93EC018991882319F027
:1001A00064E1E3D0FACFDF91CF9108951F920F92CF
:1001B0000FB60F9211242F933F934F935F936F933A
:1001C0007F938F939F93AF93BF93EF93FF93CF93BF
:1001D000DF93CDB7DEB76897DEBFCDBF86E690E090
:1001E000D9DF4AE0BE016F5F7F4F80916000909140
:1001F00061000BD1CE010196CDDFB29B03C084E735
:1002000090E0C8DF80E890E0C5DF68960FB6F8940C
:10021000DEBF0FBECDBFDF91CF91FF91EF91BF91B8
:10022000AF919F918F917F916F915F914F913F918E
:100230002F910F900FBE0F901F9018950F931F9343
:10024000CF93DF9385DFC901DA01C091DA00D09145
:10025000DB00C130D105C9F54091DC005091DD00D3
:100260006091DE007091DF008C019D01041B150B75
:10027000260B370B4091D2005091D3006091D400EF
:100280007091D500041715072607370708F457C0E3
:100290001092DB001092DA008093DC009093DD0076
:1002A000A093DE00B093DF00809162009091630024
:1002B00071DF88B30090D00002C0CC0FDD1F0A941C
:1002C000E2F7C095C823C8BB3AC0CD2BC1F5409119
:1002D000DC005091DD006091DE007091DF008C0148
:1002E0009D01041B150B260B370B4091D600509136
:1002F000D7006091D8007091D90004171507260720
:100300003707E8F0C1E0D0E0D093DB00C093DA001B
:100310008093DC009093DD00A093DE00B093DF00BB
:10032000809164009091650035DF88B30090D00023
:1003300002C0CC0FDD1F0A94E2F78C2B88BB8FEF35
:1003400092E527E0815090402040E1F700C0000096
:1003500081E990E01FDFB29B03C084E790E01ADFE1
:10036000DF91CF911F910F910895F894BB9A2AE0E5
:10037000809508F4C39808F0C39A362F3A95F1F7A0
:1003800086952A95B1F71895F6DE58DFFECF84E002
:1003900090E09093D1008093D000BC9A88EB9BE0D2
:1003A000A0E0B0E08093D2009093D300A093D4005B
:1003B000B093D50088E893E1A0E0B0E08093D60048
:1003C0009093D700A093D800B093D9001092DB008F
:1003D0001092DA001092DC001092DD001092DE0024
:1003E0001092DF0008950024A7FD00942A0F301D0D
:1003F000401D501D601D701D801D901D0895EE0F45
:10040000FF1F0590F491E02D0994BB274A3031F489
:10041000992322F4BDE2909581959F4F01C0BB279F
:10042000FB015527AA27880F991FAA1FA41710F0B0
:10043000A41B83955051B9F7A05DAA3308F0A95DBC
:10044000A193009779F7B111B1931192CB0100C03C
:10045000DC01FC01672F71917723E1F7329704C02B
:100460007C916D9370836291AE17BF07C8F30895B6
:04047000F894FFCF2E
:100474003600AA00BD00494E5445525255505420EE
:1004840052554E00313256206973207365656E00F3
:1004940054686973206973206120746573740D0A4C
:1004A4000052756E6E696E67207468726F75676846
:1004B400207570646174650D0A005475726E696EFE
:1004C40067206F6666204C4544200D0A00547572FF
:1004D4006E696E67206F6E204C4544200D0A000043
:00000001FF
