:100000000EC028C027C026C025C025C023C022C0DE
:1000100021C020C01FC01EC01DC01CC01BC0112499
:100020001FBECFE5D2E0DEBFCDBF10E0A0E6B0E05E
:10003000EAECF2E002C005900D92A436B107D9F7C0
:1000400020E0A4E6B0E001C01D92AD38B207E1F7B0
:100050002BD139C1D5CF1F920F920FB60F92112419
:10006000DF92EF92FF920F931F932F933F934F9343
:100070005F936F937F938F939F93AF93BF93CF9330
:10008000DF93EF93FF93E0918300F0918400D09091
:100090008500E0908600F090870000918800109124
:1000A0008900D0918A00C0918B00B0918C00F395AB
:1000B0002D2D3E2D4F2D502F612F7D2F8C2F9B2FBF
:1000C000A1E0F5D0E93EA3E0FA0758F0E85EF3407E
:1000D000D22EE32EF42E052F162FD72FC82FB92F8F
:1000E000E7CFD0928500E0928600F09287000093DF
:1000F000880010938900D0938A00C0938B00B0933E
:100100008C00F0938400E0938300FF91EF91DF91E6
:10011000CF91BF91AF919F918F917F916F915F919F
:100120004F913F912F911F910F91FF90EF90DF9092
:100130000F900FBE0F901F901895F8942091850096
:10014000309186004091870050918800609189002D
:1001500070918A0080918B0090918C007894089522
:10016000BC9A83B7826083BF89B7826089BF789465
:1001700008954F925F926F927F928F929F92AF926B
:10018000BF92DBDF29013A0126B322FB222720F9A7
:100190003FEF80E792E0315080409040E1F700C0AF
:1001A0000000222351F080917400811106C081E08B
:1001B00080937A0080937400C49A8091740088239D
:1001C000D9F08091750090917600A0917700B09160
:1001D0007800892B8A2B8B2B79F421110FC0ADDF8E
:1001E0002093750030937600409377005093780009
:1001F00081E08093790010C0222371F08091790012
:10020000882351F0109279001092750010927600B8
:10021000109277001092780080917A00882361F123
:1002200080917900882341F1809160009091610074
:10023000AA2797FDA095BA2F40917500509176009E
:100240006091770070917800840F951FA61FB71FEB
:10025000481659066A067B0678F0C49810927A0010
:10026000109274001092790010927500109276002E
:100270001092770010927800BF90AF909F908F906F
:100280007F906F905F904F900895F894BB9A2AE00A
:10029000809508F4C39808F0C39A362F3A95F1F781
:1002A00086952A95B1F718955BDF63DFFECF0024B2
:1002B000A7FD00942A0F301D401D501D601D701DAC
:0A02C000801D901D0895F894FFCFF3
:0402CA00881336005F
:00000001FF
