:100000000EC028C027C026C025C031C023C022C0D2
:1000100021C020C01FC01EC01DC01CC01BC0112499
:100020001FBECFE5D2E0DEBFCDBF10E0A0E6B0E05E
:10003000E8EEF2E002C005900D92A637B107D9F7BD
:1000400020E0A6E7B0E001C01D92AF39B207E1F7AA
:100050003AD148C1D5CFCF93DF93EC018991882362
:1000600019F064E121D1FACFDF91CF9108951F9269
:100070000F920FB60F921124DF92EF92FF920F931F
:100080001F932F933F934F935F936F937F938F9320
:100090009F93AF93BF93CF93DF93EF93FF93E09141
:1000A0009500F0919600D0909700E0909800F09025
:1000B000990000919A0010919B00D0919C00C091F2
:1000C0009D00B0919E00F3952D2D3E2D4F2D502F6C
:1000D000612F7D2F8C2F9B2FA1E0F8D0E93EA3E06C
:1000E000FA0758F0E85EF340D22EE32EF42E052FE7
:1000F000162FD72FC82FB92FE7CFD0929700E092B5
:100100009800F092990000939A0010939B00D0936E
:100110009C00C0939D00B0939E00F0939600E093E6
:100120009500FF91EF91DF91CF91BF91AF919F919A
:100130008F917F916F915F914F913F912F911F917F
:100140000F91FF90EF90DF900F900FBE0F901F90D8
:100150001895F8942091970030919800409199005B
:1001600050919A0060919B0070919C0080919D003D
:1001700090919E007894089584E690E06CDFBC9A9C
:1001800083B7826083BF89B7826089BF78940895FE
:100190004F925F926F927F928F929F92AF92BF9297
:1001A000D8DF29013A0126B322FB222720F93FEFAD
:1001B00080E792E0315080409040E1F700C00000BD
:1001C000222351F080918600811106C081E0809346
:1001D0008C0080938600C49A809186008823D9F091
:1001E0008091870090918800A0918900B0918A0049
:1001F000892B8A2B8B2B79F421110FC0AADF209336
:100200008700309388004093890050938A0081E0F2
:1002100080938B0010C0222371F080918B00882383
:1002200051F010928B00109287001092880010926B
:10023000890010928A0080918C00882361F180915E
:100240008B00882341F18091600090916100AA2782
:1002500097FDA095BA2F409187005091880060913A
:10026000890070918A00840F951FA61FB71F48163A
:1002700059066A067B0678F0C49810928C0010929A
:10028000860010928B0010928700109288001092C6
:10029000890010928A00BF90AF909F908F907F90BE
:1002A0006F905F904F900895F894BB9A2AE08095E4
:1002B00008F4C39808F0C39A362F3A95F1F786955B
:1002C0002A95B1F7189558DF63DFFECF0024A7FD0C
:1002D00000942A0F301D401D501D601D701D801D93
:0802E000901D0895F894FFCF72
:1002E800102736005374617274696E672053657401
:0602F80075700D0A000004
:00000001FF
